:100000000C9490000C94B8000C94B8000C94B800B8
:100010000C94B8000C94B8000C94B8000C94B80080
:100020000C94B8000C94B8000C94B8000C94B80070
:100030000C94B8000C94B8000C94B8000C94B80060
:100040000C9411020C94B8000C9481020C945B0285
:100050000C94B8000C94B8000C94B8000C94B80040
:100060000C94B8000C94B80053656E64206F6E65F4
:100070002068657861646563696D616C2064696797
:10008000697420302D6620746F206465636F646529
:100090002061207061747465726E2E004E6F204C6A
:1000A0003239384E2070696E73206F72206D6F7414
:1000B0006F72732061726520636F6E6E6563746525
:1000C0006420696E2074686973206578657263695D
:1000D00073652E004578706572696D656E742034A5
:1000E0002064726166743A204C3239384E2042697D
:1000F00074732829207461626C652066616D696C77
:10010000696172697A6174696F6E2E002020452FD3
:10011000502F4C2F523A2000626974735F00B30273
:1001200011241FBECFEFD8E0DEBFCDBF11E0A0E0AD
:10013000B1E0E8EEF7E002C005900D92A631B107FC
:10014000D9F721E0A6E1B1E001C01D92AE3BB207B4
:10015000E1F710E0C0E9D0E004C02197FE010E9461
:10016000EC03CF38D107C9F70E94E5020C94F203E3
:100170000C940000AF92BF92CF92DF92EF92FF9269
:100180000F931F93CF93DF936C017B018B01040FBF
:10019000151FEB015E01AE18BF08C017D10759F05B
:1001A0006991D601ED91FC910190F081E02DC6019D
:1001B0000995892B79F7C501DF91CF911F910F9197
:1001C000FF90EF90DF90CF90BF90AF900895FC012B
:1001D000538D448D252F30E0842F90E0821B930BAC
:1001E000541710F0CF96089501970895FC01918D52
:1001F000828D981761F0A28DAE0FBF2FB11D5D9655
:100200008C91928D9F5F9F73928F90E008958FEFF6
:100210009FEF0895FC01918D828D981731F0828DAA
:10022000E80FF11D858D90E008958FEF9FEF089501
:10023000FC01918D228D892F90E0805C9F4F821B65
:1002400091098F73992708958FE191E00E94180119
:1002500021E0892B09F420E0822F089580E090E0CE
:10026000892B29F00E94240181110C94000008952B
:10027000FC01A48DA80FB92FB11DA35ABF4F2C911B
:10028000848D90E001968F739927848FA689B78912
:100290002C93A089B1898C91837080648C93938D09
:1002A000848D981306C00288F389E02D80818F7DAC
:1002B00080830895EF92FF920F931F93CF93DF9364
:1002C000EC0181E0888F9B8D8C8D98131AC0E88992
:1002D000F989808185FF15C09FB7F894EE89FF8961
:1002E0006083E889F98980818370806480839FBFFF
:1002F00081E090E0DF91CF911F910F91FF90EF90FF
:100300000895F62E0B8D10E00F5F1F4F0F7311270E
:10031000E02E8C8D8E110CC00FB607FCFACFE88949
:10032000F989808185FFF5CFCE010E943801F1CF98
:10033000EB8DEC0FFD2FF11DE35AFF4FF0829FB7BD
:10034000F8940B8FEA89FB8980818062CFCF0F936D
:100350001F93CF93DF938C01D0E0C0E0F801EC0F46
:10036000FD1F6491662341F08FE191E00E945A01E4
:10037000892B11F02196F2CFCE01DF91CF911F9101
:100380000F910895682F8FE191E00C945A01CF935B
:10039000DF93EC01888D8823B9F0AA89BB89E889AD
:1003A000F9898C9185FD03C0808186FD0DC00FB653
:1003B00007FCF7CF8C9185FFF2CF808185FFEDCFD1
:1003C000CE010E943801E9CFDF91CF91089542E03C
:1003D00050E062E171E08FE191E00C94BA00CF93BC
:1003E000DF930E94A701EC010E94E7018C0F9D1F83
:1003F000DF91CF9108959091BD01891780F441E07C
:1004000050E060E070E004C0440F551F661F771F86
:100410008A95D2F79091BC01942381E009F480E0A1
:1004200008951F920F920FB60F9211242F933F93AE
:100430008F939F93AF93BF9380911B0190911C0169
:10044000A0911D01B0911E0130911A0123E0230FEC
:100450002D3758F50196A11DB11D20931A018093E7
:100460001B0190931C01A0931D01B0931E0180916C
:10047000160190911701A0911801B09119010196F0
:10048000A11DB11D8093160190931701A09318012F
:10049000B0931901BF91AF919F918F913F912F918F
:1004A0000F900FBE0F901F90189526E8230F02960D
:1004B000A11DB11DD2CF1F920F920FB60F92112422
:1004C0002F933F934F935F936F937F938F939F935C
:1004D000AF93BF93EF93FF938FE191E00E943801B8
:1004E000FF91EF91BF91AF919F918F917F916F910C
:1004F0005F914F913F912F910F900FBE0F901F90E2
:1005000018951F920F920FB60F9211242F938F936D
:100510009F93EF93FF93E0912F01F0913001808141
:10052000E0913501F091360182FD1BC090818091F0
:1005300038018F5F8F7320913901821741F0E0916C
:100540003801F0E0E15EFE4F958F80933801FF9116
:10055000EF919F918F912F910F900FBE0F901F9051
:1005600018958081F4CFEFE1F1E01382128288EEDA
:1005700093E0A0E0B0E084839583A683B78384E012
:1005800091E09183808385EC90E09587848784EC6B
:1005900090E09787868780EC90E0918B808B81EC50
:1005A00090E0938B828B82EC90E0958B848B86EC31
:1005B00090E0978B868B118E128E138E148EECEB3F
:1005C000F1E088E0818310820895789484B5826098
:1005D00084BD84B5816084BD85B5826085BD85B5E7
:1005E000816085BD80916E00816080936E00109265
:1005F00081008091810082608093810080918100E0
:100600008160809381008091800081608093800070
:100610008091B10084608093B1008091B0008160CE
:100620008093B00080917A00846080937A008091FA
:100630007A00826080937A0080917A008160809352
:100640007A0080917A00806880937A001092C100CD
:10065000E0912F01F091300182E08083E0912B0145
:10066000F0912C011082E0912D01F0912E018FEC80
:10067000808310923701E0913301F091340186E0DC
:100680008083E0913101F09132018081806180832B
:10069000E0913101F0913201808188608083E091A6
:1006A0003101F0913201808180688083E0913101D5
:1006B000F091320180818F7D808384ED90E00E94F3
:1006C000EF018CE990E00E94EF0188E690E00E9443
:1006D000EF01C0E0D0E08FE191E00E941801181610
:1006E00019060CF06EC08FE191E00E94F60090EDCB
:1006F000980F9A3008F047C0082E000C990BC0974D
:1007000097FDE9CF8093BC0188E191E00E94A701A9
:1007100013E0812F0E94FB01811149C080E30E94F8
:10072000C2011150B0F78CE091E00E94A70183E074
:100730000E94FB0181113DC080E30E94C2018FE253
:100740000E94C20182E00E94FB01811134C080E35B
:100750000E94C2018FE20E94C20181E00E94FB015F
:1007600081112BC080E30E94C2018FE20E94C2016E
:1007700080E00E94FB01811122C080E30E94C2013F
:100780000E94E701A8CF9FE9980F963030F4082E19
:10079000000C990B87559109B3CF9FEB980F9630BA
:1007A00008F099CF082E000C990BC797A9CF81E3C9
:1007B000B6CF81E3C2CF81E3CBCF81E3D4CF81E356
:1007C000DDCF209709F487CF0E942401882309F404
:1007D00082CF0E9400007FCFEE0FFF1F0590F491A3
:0807E000E02D0994F894FFCF0D
:1007E800000000005A01BA00E700C7011801F6002E
:0607F8000A010D0A0000D9
:00000001FF
