:100000000C94B2000C94DA000C94DA000C94DA0030
:100010000C94DA000C94DA000C94DA000C94DA00F8
:100020000C94DA000C94DA000C94DA000C94DA00E8
:100030000C94DA000C94DA000C94DA000C94DA00D8
:100040000C949C030C94DA000C940C040C94E603BE
:100050000C94DA000C94DA000C94DA000C94DA00B8
:100060000C94DA000C94DA005468652070726F67A3
:1000700072616D20696E7365727473203330302045
:100080006D73206174207A65726F206265666F728D
:100090006520726576657273696E672E00486F6CB5
:1000A0006420443220746F20656E61626C653B2071
:1000B000773D666F72776172642C20733D7265764E
:1000C000657273652C20783D73746F702E004578CF
:1000D000706572696D656E74203320647261667438
:1000E0003A206F6E65206D6F746F722C206C6F7785
:1000F0002D73706565642066616D696C69617269F4
:100100007A6174696F6E2E000000000024002700E1
:100110002A0000000000250028002B00000000003D
:100120002300260029000404040404040404020239
:100130000202020203030303030301020408102066
:100140004080010204081020010204081020000071
:100150000008000201000003040700000000000086
:1001600000003E0411241FBECFEFD8E0DEBFCDBF9C
:1001700011E0A0E0B1E0E4E6FFE002C005900D92DE
:10018000A631B107D9F721E0A6E1B1E001C01D9287
:10019000A93FB207E1F710E0C2EBD0E004C021971D
:1001A000FE010E94AA07C13BD107C9F70E94BA0409
:1001B0000C94B0070C940000833081F028F4813057
:1001C00099F08230A9F008958730A9F08830C9F0FD
:1001D0008430B1F4809180008F7D03C080918000D5
:1001E0008F7780938000089584B58F7784BD0895BC
:1001F00084B58F7DFBCF8091B0008F778093B00066
:1002000008958091B0008F7DF9CFCF93DF93282F91
:1002100030E0F901E25BFE4F8491F901E65CFE4FAC
:10022000D491F901EA5DFE4FC491CC23A1F0811174
:100230000E94DC00EC2FF0E0EE0FFF1FE45EFE4FAB
:10024000A591B491EC91ED2381E090E009F480E078
:10025000DF91CF91089580E090E0FACF1F93CF9384
:10026000DF93282F30E0F901E25BFE4F8491F90122
:10027000E65CFE4FD491F901EA5DFE4FC491CC23B8
:10028000A9F0162F81110E94DC00EC2FF0E0EE0F98
:10029000FF1FEE5EFE4FA591B4918FB7F894EC91DD
:1002A000111108C0D095DE23DC938FBFDF91CF9171
:1002B0001F910895DE2BF8CF8091E401882359F037
:1002C0008091CE019091CF018F3F980721F06091EE
:1002D000E2010C942E010895CF93DF9390E0FC018E
:1002E000E65CFE4F24918A5D9E4FFC018491882339
:1002F000C9F090E0880F991FFC01E85FFE4FA591BF
:10030000B491FC01EE5EFE4FC591D49161110DC018
:100310009FB7F8948C91209582238C938881282311
:1003200028839FBFDF91CF910895623051F49FB72A
:10033000F8943C91822F809583238C93E8812E2B17
:10034000EFCF8FB7F894EC912E2B2C938FBFEACF81
:100350008091D00160E0811162E08091CC010E9427
:100360006C018091CE019091CF018F3F980719F0D9
:1003700061E00E946C018091CC010E940501909384
:10038000D7018093D6019093D9018093D8012FB7DC
:10039000F8948091220190912301A0912401B091C1
:1003A00025012FBF8093DA019093DB01A093DC013C
:1003B000B093DD018093DE019093DF01A093E00113
:1003C000B093E10181E08093E4018091CE019091AE
:1003D000CF018F3F980721F06091E2010C942E012C
:1003E00008951F93CF93DF93182FEB0161E00E94D4
:1003F0006C01209739F460E0812FDF91CF911F913C
:100400000C942E01CF3FD10511F461E0F5CFE12F1F
:10041000F0E0E25BFE4FE491E33031F140F4E13093
:10042000B1F0E230E1F0C038D1057CF7E4CFE7303D
:1004300029F1E83059F1E430B1F780918000806211
:1004400080938000D0938B00C0938A0004C084B551
:10045000806884BDC7BDDF91CF911F91089584B599
:10046000806284BDC8BDF7CF809180008068809392
:100470008000D0938900C0938800EDCF8091B000B8
:1004800080688093B000C093B300E5CF8091B00046
:1004900080628093B000C093B400DDCFAF92BF9272
:1004A000CF92DF92EF92FF920F931F93CF93DF9340
:1004B0006C017B018B01040F151FEB015E01AE186F
:1004C000BF08C017D10759F06991D601ED91FC9191
:1004D0000190F081E02DC6010995892B79F7C501BE
:1004E000DF91CF911F910F91FF90EF90DF90CF9010
:1004F000BF90AF900895FC01538D448D252F30E0BF
:10050000842F90E0821B930B541710F0CF96089520
:1005100001970895FC01918D828D981761F0A28D4D
:10052000AE0FBF2FB11D5D968C91928D9F5F9F7313
:10053000928F90E008958FEF9FEF0895FC01918DC9
:10054000828D981731F0828DE80FF11D858D90E036
:1005500008958FEF9FEF0895FC01918D228D892FD3
:1005600090E0805C9F4F821B91098F7399270895BB
:1005700086E291E00E94AC0221E0892B09F420E0A0
:10058000822F089580E090E0892B29F00E94B80224
:1005900081110C9400000895FC01A48DA80FB92FBF
:1005A000B11DA35ABF4F2C91848D90E001968F739B
:1005B0009927848FA689B7892C93A089B1898C91BA
:1005C000837080648C93938D848D981306C0028809
:1005D000F389E02D80818F7D80830895EF92FF92D3
:1005E0000F931F93CF93DF93EC0181E0888F9B8D56
:1005F0008C8D98131AC0E889F989808185FF15C010
:100600009FB7F894EE89FF896083E889F989808132
:100610008370806480839FBF81E090E0DF91CF9101
:100620001F910F91FF90EF900895F62E0B8D10E023
:100630000F5F1F4F0F731127E02E8C8D8E110CC092
:100640000FB607FCFACFE889F989808185FFF5CFDD
:10065000CE010E94CC02F1CFEB8DEC0FFD2FF11DEE
:10066000E35AFF4FF0829FB7F8940B8FEA89FB891A
:1006700080818062CFCFCF93DF93EC01888D882378
:10068000B9F0AA89BB89E889F9898C9185FD03C0F5
:10069000808186FD0DC00FB607FCF7CF8C9185FFDA
:1006A000F2CF808185FFEDCFCE010E94CC02E9CF51
:1006B000DF91CF91089542E050E062E171E086E27F
:1006C00091E00C944E02AC019B018091E701909166
:1006D000E8014817590784F461E070E080E090E099
:1006E00004C0660F771F881F991F4A95D2F76223AF
:1006F000732381E0672B09F480E008950F931F9323
:10070000CF93DF938C01D0E0C0E0F801EC0FFD1F28
:100710006491662341F086E291E00E94EE02892B0B
:1007200011F02196F2CF0E945B038C0F9D1FDF9189
:10073000CF911F910F9108951F920F920FB60F92B4
:1007400011242F933F938F939F93AF93BF938091E7
:10075000220190912301A0912401B09125013091B3
:10076000210123E0230F2D3758F50196A11DB11D5E
:10077000209321018093220190932301A0932401CF
:10078000B093250180911D0190911E01A0911F0140
:10079000B09120010196A11DB11D80931D01909380
:1007A0001E01A0931F01B0932001BF91AF919F91B3
:1007B0008F913F912F910F900FBE0F901F90189522
:1007C00026E8230F0296A11DB11DD2CF1F920F92D2
:1007D0000FB60F9211242F933F934F935F936F9314
:1007E0007F938F939F93AF93BF93EF93FF9386E293
:1007F00091E00E94CC02FF91EF91BF91AF919F9148
:100800008F917F916F915F914F913F912F910F90B9
:100810000FBE0F901F9018951F920F920FB60F9258
:1008200011242F938F939F93EF93FF93E0913601C1
:10083000F09137018081E0913C01F0913D0182FD12
:100840001BC0908180913F018F5F8F732091400189
:10085000821741F0E0913F01F0E0EA5DFE4F958F95
:1008600080933F01FF91EF919F918F912F910F9076
:100870000FBE0F901F9018958081F4CFE6E2F1E053
:100880001382128288EE93E0A0E0B0E08483958327
:10089000A683B78384E091E09183808385EC90E028
:1008A0009587848784EC90E09787868780EC90E03A
:1008B000918B808B81EC90E0938B828B82EC90E02B
:1008C000958B848B86EC90E0978B868B118E128EA5
:1008D000138E148EE5EEF1E080E190E09383828345
:1008E0001182108215821482168217821086118658
:1008F00085E0828786E0838787E0848788E0858734
:1009000089E086878AE08787118A108A138A128A8B
:10091000ECECF1E082E090E09183808383E090E072
:100920009383828381E08483858382E390E0A0E0E7
:10093000B0E086839783A087B18781E090E09387BA
:1009400082879587848716861786108A118A128A6D
:10095000138A148A158A168A178A108EE3ECF1E03E
:1009600010821182128213821482158216821782DB
:1009700010860895789484B5826084BD84B58160C2
:1009800084BD85B5826085BD85B5816085BD80915A
:100990006E00816080936E001092810080918100D2
:1009A00082608093810080918100816080938100CA
:1009B000809180008160809380008091B10084608C
:1009C0008093B1008091B00081608093B0008091ED
:1009D0007A00846080937A0080917A0082608093AC
:1009E0007A0080917A00816080937A0080917A0009
:1009F000806880937A001092C100E0913601F091F6
:100A0000370182E08083E0913201F091330110825E
:100A1000E0913401F09135018FEC808310923E011A
:100A2000E0913A01F0913B0186E08083E09138014A
:100A3000F0913901808180618083E0913801F091EB
:100A40003901808188608083E0913801F09139011B
:100A5000808180688083E0913801F0913901808144
:100A60008F7D80831092D1011092E2011092E301F8
:100A70000E945C010E94A80161E08091EF010E9448
:100A80006C0161E08091F0010E946C0161E0809155
:100A9000F1010E946C0161E08091F2010E946C0101
:100AA00061E08091F3010E946C0161E08091F401AA
:100AB0000E946C0170E060E08091EF010E94F10102
:100AC00070E060E08091F4010E94F1018CE090E020
:100AD0009093EA018093E9016CE070E083E090E09C
:100AE0000E9463038093EE016CE070E082E090E08E
:100AF0000E9463038093ED016CE070E081E090E080
:100B00000E9463038093EC016CE070E090E080E071
:100B10000E9463038093EB011092CB011092C701F6
:100B20001092C8011092C9011092CA018EEC90E097
:100B30000E947E038DE990E00E947E0388E690E0AB
:100B40000E947E0300EB1FEF90E5E92EF12CC1E03F
:100B500080E0C82E80E0D82E8091E401811102C08F
:100B60000E94A8018091CC010E9405012FB7F89442
:100B7000409122015091230160912401709125013F
:100B80002FBF2091D6013091D7018217930761F0D2
:100B90004093DA015093DB016093DC017093DD0137
:100BA0009093D7018093D6018090DA019090DB0179
:100BB000A090DC01B090DD012A013B0148185908E2
:100BC0006A087B088090D2019090D301A090D40154
:100BD000B090D501481459046A047B0440F1209177
:100BE000D8013091D9018217930709F19093D90167
:100BF0008093D8014093DE015093DF016093E001C0
:100C00007093E1013091D1012091D0012C27281758
:100C1000190609F040C08091E2018C27311101C012
:100C200081E08093E201C093E3010E945C01809126
:100C3000E20181113BC070E060E08091EF010E9411
:100C4000F10170E060E08091F4010E94F1011092E6
:100C50001C0110921B0110921A011092190110929E
:100C6000180110921701109216011092CB011092E8
:100C7000C7011092C8011092C9011092CA01C11493
:100C8000D10409F469CF0E94B802882309F45FCF28
:100C90000E9400005CCF3111CACF1092E201C5CF93
:100CA0008335B9F410931C0100931B0186E291E097
:100CB0000E94AC02181619069CF486E291E00E948C
:100CC0008A028F7D873561F7F0921C01E0921B014B
:100CD000EDCF883559F710921C0110921B01E6CF19
:100CE00080911B0190911C0120911601222309F48F
:100CF000E6C0892B39F41092160110921A01109255
:100D0000190127C02FB7F8948091220190912301F7
:100D1000A0912401B09125012FBF2091CB01222366
:100D200009F49EC04091C3015091C4016091C50176
:100D30007091C6014C015D01841A950AA60AB70A92
:100D4000B501A4014C3221E052076105710508F09C
:100D500092C08091190190911A01D091F401B09044
:100D6000EF012091EE01211103C02B2DBD2ED22FBA
:100D70002091ED01222309F4CCC09093F6018093D9
:100D8000F5011092F8011092F7012091F5013091D0
:100D9000F601522F432F21308FEF380714F451E022
:100DA0004FEF852F942F8F3F910519F014F08FEF9F
:100DB00090E09093F6018093F5018091F701909176
:100DC000F80181304FEF940714F481E09FEF8F3FDB
:100DD000910519F014F08FEF90E09093F801809353
:100DE000F7018091EC0137FD9DC0882309F49DC077
:100DF00060E08091F0010E942E0161E08091F1019C
:100E00000E942E018091EB012091F7013091F801B1
:100E100037FD94C0882309F494C060E08091F2010A
:100E20000E942E0161E08091F3010E942E016091E9
:100E3000F5017091F60177FF03C071956195710915
:100E40008B2D0E94F1016091F7017091F80177FFFD
:100E500003C07195619571098D2F0E94F1010FCF2B
:100E60008093C3019093C401A093C501B093C601C0
:100E7000C093CB016ECF4093C7015093C8016093DC
:100E8000C9017093CA018093C3019093C401A093D8
:100E9000C501B093C6011092160180911B0190917B
:100EA0001C0190931A01809319011816190674F504
:100EB00081E090E090931801809317014ACF00974A
:100EC00009F41BCF409117015091180141155105AC
:100ED00041F331E0141615060CF030E021E018164D
:100EE00019060CF020E03217E1F210921A0110926C
:100EF0001901C09316011092CB011092C7011092F4
:100F0000C8011092C9011092CA0123CF8FEF9FEF41
:100F1000D1CF1092F6011092F5019093F8018093D1
:100F2000F70133CF882309F463CF60E08091F101AA
:100F30000E942E0161E08091F00162CF882309F4C4
:100F40006CCF60E08091F3010E942E0161E08091FE
:100F5000F2016BCFEE0FFF1F0590F491E02D099485
:040F6000F894FFCF33
:100F640000000000EE024E027B023B03AC028A0248
:060F74009E020D0A0000C0
:00000001FF
