:100000000C94B3000C94DB000C94DB000C94DB002C
:100010000C94DB000C94DB000C94DB000C94DB00F4
:100020000C94DB000C94DB000C94DB000C94DB00E4
:100030000C94DB000C94DB000C94DB000C94DB00D4
:100040000C949C030C94DB000C940C040C94E603BD
:100050000C94DB000C94DB000C94DB000C94DB00B4
:100060000C94DB000C94DB00583D41312C20593DB1
:1000700041302E20507265737320535720746F20C7
:10008000746F67676C6520616E616C6F6720726565
:100090006164696E67732E004578706572696D657D
:1000A0006E7420323A204A6F79737469636B2053FF
:1000B0006574757020286E6F206D6F746F72206488
:1000C000726976657220636F6E6E6563746564290C
:1000D00000202059284130293A2000582841312950
:1000E0003A20004A6F79737469636B206275747487
:1000F0006F6E204F4646004A6F79737469636B20B8
:10010000627574746F6E204F4E0000000000240072
:1001100027002A000000000023002600290000001C
:100120000000250028002B00040404040404040437
:100130000202020202020303030303030102040892
:100140001020408001020408102001020408102041
:100150000000000800020100000304070000000086
:10016000000000003E0411241FBECFEFD8E0DEBF28
:10017000CDBF11E0A0E0B1E0EEEAFCE002C00590E6
:100180000D92A631B107D9F721E0A6E1B1E001C097
:100190001D92AE3DB207E1F710E0C3EBD0E004C022
:1001A0002197FE010E944F06C23BD107C9F70E946A
:1001B0009C040C9455060C940000833081F028F4C4
:1001C000813099F08230A9F008958730A9F0883005
:1001D000C9F08430B1F4809180008F7D03C080919C
:1001E00080008F7780938000089584B58F7784BDD9
:1001F000089584B58F7DFBCF8091B0008F77809379
:10020000B00008958091B0008F7DF9CF1F93CF93F8
:10021000DF932091C7013091C8012F3F320729F1A8
:100220001091DB013327F901E05BFE4F8491F90166
:10023000E45CFE4FD491F901E85DFE4FC491CC23FC
:10024000A1F081110E94DD00EC2FF0E0EE0FFF1F06
:10025000E25EFE4FA591B4918FB7F894EC91111125
:1002600008C0D095DE23DC938FBFDF91CF911F9123
:100270000895DE2BF8CFCF93DF93282F30E0F901DC
:10028000E05BFE4F8491F901E45CFE4FD491F901EB
:10029000E85DFE4FC491CC23A1F081110E94DD00E6
:1002A000EC2FF0E0EE0FFF1FEC5EFE4FA591B49136
:1002B000EC91ED2381E090E009F480E0DF91CF91B3
:1002C000089580E090E0FACFCF93DF9390E0FC01B7
:1002D000E45CFE4F2491885D9E4FFC01849188234D
:1002E000C9F090E0880F991FFC01E65FFE4FA591D1
:1002F000B491FC01E25EFE4FC591D49161110DC035
:100300009FB7F8948C91209582238C938881282321
:1003100028839FBFDF91CF910895623051F49FB73A
:10032000F8943C91822F809583238C93E8812E2B27
:10033000EFCF8FB7F894EC912E2B2C938FBFEACF91
:100340008091C90160E0811162E08091C5010E9445
:1003500064018091C7019091C8018F3F980719F0FF
:1003600061E00E9464018091C5010E943B0190936D
:10037000D0018093CF019093D2018093D1012FB708
:10038000F89480911B0190911C01A0911D01B091E6
:100390001E012FBF8093D3019093D401A093D50168
:1003A000B093D6018093D7019093D801A093D9013F
:1003B000B093DA0181E08093DD010C9406018E5048
:1003C000806480937C0080917A00806480937A00BE
:1003D00080917A0086FDFCCF809178009091790021
:1003E0000895AF92BF92CF92DF92EF92FF920F9358
:1003F0001F93CF93DF936C017B018B01040F151FBB
:10040000EB015E01AE18BF08C017D10759F0699122
:10041000D601ED91FC910190F081E02DC601099586
:10042000892B79F7C501DF91CF911F910F91FF9033
:10043000EF90DF90CF90BF90AF900895FC01538D67
:10044000448D252F30E0842F90E0821B930B5417AE
:1004500010F0CF96089501970895FC01918D828D3B
:10046000981761F0A28DAE0FBF2FB11D5D968C91D4
:10047000928D9F5F9F73928F90E008958FEF9FEF13
:100480000895FC01918D828D981731F0828DE80FCF
:10049000F11D858D90E008958FEF9FEF0895FC0189
:1004A000918D228D892F90E0805C9F4F821B910956
:1004B0008F73992708958FE191E00E944F0221E008
:1004C000892B09F420E0822F089580E090E0892BA9
:1004D00029F00E945B0281110C9400000895FC0138
:1004E000A48DA80FB92FB11DA35ABF4F2C91848D95
:1004F00090E001968F739927848FA689B7892C93F2
:10050000A089B1898C91837080648C93938D848D44
:10051000981306C00288F389E02D80818F7D808347
:100520000895EF92FF920F931F93CF93DF93EC0107
:1005300081E0888F9B8D8C8D98131AC0E889F9898A
:10054000808185FF15C09FB7F894EE89FF8960838D
:10055000E889F98980818370806480839FBF81E00E
:1005600090E0DF91CF911F910F91FF90EF90089550
:10057000F62E0B8D10E00F5F1F4F0F731127E02E2B
:100580008C8D8E110CC00FB607FCFACFE889F98963
:10059000808185FFF5CFCE010E946F02F1CFEB8DF8
:1005A000EC0FFD2FF11DE35AFF4FF0829FB7F89437
:1005B0000B8FEA89FB8980818062CFCF0F931F93D5
:1005C000CF93DF938C01D0E0C0E0F801EC0FFD1F6A
:1005D0006491662341F08FE191E00E949102892BA2
:1005E00011F02196F2CFCE01DF91CF911F910F91A3
:1005F0000895CF93DF93EC01888D8823B9F0AA8901
:10060000BB89E889F9898C9185FD03C0808186FDCD
:100610000DC00FB607FCF7CF8C9185FFF2CF80811C
:1006200085FFEDCFCE010E946F02E9CFDF91CF9120
:1006300008958F929F92AF92BF920F931F93CF9383
:10064000DF93CDB7DEB7A1970FB6F894DEBF0FBE2C
:10065000CDBF19A2423008F44AE08E010F5D1F4F52
:10066000842E912CB12CA12CA50194010E942D0661
:10067000E62FB901CA01EA3044F5E05DD801EE93F6
:100680008D01232B242B252B79F790E080E0109708
:1006900069F0FD0101900020E9F73197AF014A1B95
:1006A0005B0BBD018FE191E00E94F101A1960FB6B5
:1006B000F894DEBF0FBECDBFDF91CF911F910F9198
:1006C000BF90AF909F908F900895E95CD7CFCF9265
:1006D000DF92EF92FF92CF93DF936B017C016DE28B
:1006E0008FE191E00E949102EC0166277727CB0110
:1006F0006C197D098E099F094AE00E9419038C0F2D
:100700009D1FDF91CF91FF90EF90DF90CF900895E4
:1007100042E050E062E171E08FE191E00C94F10180
:10072000CF93DF930E94DE02EC010E9488038C0FBE
:100730009D1FDF91CF9108951F920F920FB60F92D8
:1007400011242F933F938F939F93AF93BF938091E7
:100750001B0190911C01A0911D01B0911E013091CF
:100760001A0123E0230F2D3758F50196A11DB11D65
:1007700020931A0180931B0190931C01A0931D01EB
:10078000B0931E018091160190911701A09118015C
:10079000B09119010196A11DB11D8093160190938E
:1007A0001701A0931801B0931901BF91AF919F91C8
:1007B0008F913F912F910F900FBE0F901F90189522
:1007C00026E8230F0296A11DB11DD2CF1F920F92D2
:1007D0000FB60F9211242F933F934F935F936F9314
:1007E0007F938F939F93AF93BF93EF93FF938FE18B
:1007F00091E00E946F02FF91EF91BF91AF919F91A5
:100800008F917F916F915F914F913F912F910F90B9
:100810000FBE0F901F9018951F920F920FB60F9258
:1008200011242F938F939F93EF93FF93E0912F01C8
:10083000F09130018081E0913501F091360182FD27
:100840001BC09081809138018F5F8F732091390197
:10085000821741F0E0913801F0E0E15EFE4F958FA4
:1008600080933801FF91EF919F918F912F910F907D
:100870000FBE0F901F9018958081F4CFEFE1F1E04B
:100880001382128288EE93E0A0E0B0E08483958327
:10089000A683B78384E091E09183808385EC90E028
:1008A0009587848784EC90E09787868780EC90E03A
:1008B000918B808B81EC90E0938B828B82EC90E02B
:1008C000958B848B86EC90E0978B868B118E128EA5
:1008D000138E148EE5ECF1E082E090E0918380834A
:1008E00083E090E09383828381E08483858382E345
:1008F00090E0A0E0B0E086839783A087B18781E095
:1009000090E0938782879587848716861786108A5A
:10091000118A128A138A148A158A168A178A108EE7
:10092000ECEBF1E0108211821282138214821582A4
:100930001682178210860895789484B5826084BDEB
:1009400084B5816084BD85B5826085BD85B58160D3
:1009500085BD80916E00816080936E001092810051
:10096000809181008260809381008091810081600C
:1009700080938100809180008160809380008091CD
:10098000B10084608093B1008091B0008160809359
:10099000B00080917A00846080937A0080917A0020
:1009A000826080937A0080917A00816080937A00DF
:1009B00080917A00806880937A001092C100E09163
:1009C0002F01F091300182E08083E0912B01F091C2
:1009D0002C011082E0912D01F0912E018FEC80838B
:1009E00010923701E0913301F091340186E0808369
:1009F000E0913101F0913201808180618083E0914A
:100A00003101F0913201808188608083E091310171
:100A1000F0913201808180688083E0913101F09112
:100A2000320180818F7D80830E94A00188E990E05F
:100A30000E94900388E690E00E949003DD24D39406
:100A400000E010E0CC24C3948091DD01811102C04C
:100A50000E94A0018091C5010E943B012FB7F8942C
:100A600040911B0150911C0160911D0170911E016C
:100A70002FBF2091CF013091D0018217930761F0F1
:100A80004093D3015093D4016093D5017093D60164
:100A90009093D0018093CF018090D3019090D401A6
:100AA000A090D501B090D6012A013B014818590801
:100AB0006A087B088090CB019090CC01A090CD017A
:100AC000B090CE01481459046A047B0468F1209167
:100AD000D1013091D2018217930731F19093D20165
:100AE0008093D1014093D7015093D8016093D901ED
:100AF0007093DA013091CA012091C9012D25281780
:100B0000190609F055C08091DB018D25311101C016
:100B100081E08093DB01C092DC018091DD018823BC
:100B200009F498C00E9406018091DC011092DC015A
:100B3000882349F08091DB01882309F442C087EFC4
:100B400090E00E9490038091DB01882329F12FB768
:100B5000F89480911B0190911C01A0911D01B0910E
:100B60001E012FBF2091C401222371F14091BC01CD
:100B70005091BD016091BE017091BF014C015D01BA
:100B8000841A950AA60AB70AB501A401443F21E0D8
:100B900052076105710518F50115110509F454CFC7
:100BA0000E945B02882309F44FCF0E9400004CCFC3
:100BB0003111BACF1092DB018091DD018111B2CFEA
:100BC000B3CF83EE90E0BDCF8093BC019093BD0185
:100BD000A093BE01B093BF01C092C401DDCF40938A
:100BE000C0015093C1016093C2017093C30180930F
:100BF000BC019093BD01A093BE01B093BF018FE0F3
:100C00000E94DF017C018EE00E94DF01EC018BED90
:100C100090E00E94DE02B701FF0C880B990B97FF52
:100C200011C00E94670381ED90E00E94DE02BE01C8
:100C3000DD0F880B990B97FF09C00E9467030E9484
:100C40008803AACF4AE00E941903EDCF4AE00E9430
:100C50001903F5CF1092DC016DCFA1E21A2EAA1B69
:100C6000BB1BFD010DC0AA1FBB1FEE1FFF1FA2175C
:100C7000B307E407F50720F0A21BB30BE40BF50B59
:100C8000661F771F881F991F1A9469F760957095E2
:100C9000809590959B01AC01BD01CF010895EE0FA9
:0E0CA000FF1F0590F491E02D0994F894FFCF0A
:100CAE00000000009102F1011E02F9024F022D0216
:060CBE0041020D0A0000D6
:00000001FF
