:100000000C94C7000C94EF000C94EF000C94EF00DC
:100010000C94EF000C94EF000C94EF000C94EF00A4
:100020000C94EF000C94EF000C94EF000C94EF0094
:100030000C94EF000C94EF000C94EF000C94EF0084
:100040000C94A6040C94EF000C9416050C94F00488
:100050000C94EF000C94EF000C94EF000C94EF0064
:100060000C94EF000C94EF002020452F502F4C2FC4
:10007000523A200042697473200054657374206101
:100080006C6C2038206A6F79737469636B20706FB1
:10009000736974696F6E733B2072656C656173651B
:1000A00020535720746F2073746F702E00486F6C4C
:1000B00064206A6F79737469636B20535720746F7F
:1000C00020656E61626C652E2053656E64206865E4
:1000D0007820302D6620746F2073656C6563742002
:1000E0004269747328292E004578706572696D65C0
:1000F0006E7420352064726166743A2041727469AE
:10010000636C652031303039204C3239384E205301
:1001100065747570202F20436F64652D322E00208A
:100120002050574D204C2F5220004F6374616E7445
:10013000200000000000240027002A00000000002A
:10014000250028002B0000000000230026002900C5
:10015000040404040404040402020202020203036D
:100160000303030301020408102040800102040875
:100170001020010204081020000000080002010005
:1001800000030407000000000000000048051124DF
:100190001FBECFEFD8E0DEBFCDBF11E0A0E0B1E0E1
:1001A000E0EEFBE102C005900D92A631B107D9F750
:1001B00022E0A6E1B1E001C01D92A532B207E1F74D
:1001C00010E0C7ECD0E004C02197FE010E94AA0B0A
:1001D000C63CD107C9F70E9410060C94EE0D0C9492
:1001E0000000833081F028F4813099F08230A9F04A
:1001F00008958730A9F08830C9F08430B1F4809137
:1002000080008F7D03C0809180008F778093800075
:10021000089584B58F7784BD089584B58F7DFBCF15
:100220008091B0008F778093B00008958091B000E6
:100230008F7DF9CFCF93DF93282F30E0F901E85875
:10024000FE4F8491F901EC59FE4FD491F901E05B26
:10025000FE4FC491CC23A1F081110E94F100EC2F3C
:10026000F0E0EE0FFF1FEA5BFE4FA591B491EC9119
:10027000ED2381E090E009F480E0DF91CF910895D3
:1002800080E090E0FACF1F93CF93DF93282F30E0E8
:10029000F901E858FE4F8491F901EC59FE4FD491D1
:1002A000F901E05BFE4FC491CC23A9F0162F811118
:1002B0000E94F100EC2FF0E0EE0FFF1FE45CFE4F18
:1002C000A591B4918FB7F894EC91111108C0D09515
:1002D000DE23DC938FBFDF91CF911F910895DE2B3A
:1002E000F8CF80911002882359F08091FA01909103
:1002F000FB018F3F980721F060910E020C9443019F
:100300000895CF93DF9390E0FC01EC59FE4F2491C8
:10031000805B9E4FFC0184918823C9F090E0880F98
:10032000991FFC01EE5CFE4FA591B491FC01E45CC9
:10033000FE4FC591D49161110DC09FB7F8948C9177
:10034000209582238C938881282328839FBFDF9167
:10035000CF910895623051F49FB7F8943C91822F69
:10036000809583238C93E8812E2BEFCF8FB7F89461
:10037000EC912E2B2C938FBFEACF8091FC0160E093
:10038000811162E08091F8010E9481018091FA015F
:100390009091FB018F3F980719F061E00E94810165
:1003A0008091F8010E941A01909303028093020247
:1003B00090930502809304022FB7F89480911C015A
:1003C00090911D01A0911E01B0911F012FBF80933C
:1003D000060290930702A0930802B093090280934B
:1003E0000A0290930B02A0930C02B0930D0281E0DD
:1003F000809310028091FA019091FB018F3F980742
:1004000021F060910E020C94430108951F93CF9345
:10041000DF93182FEB0161E00E948101209739F4EE
:1004200060E0812FDF91CF911F910C944301CF3F6A
:10043000D10511F461E0F5CFE12FF0E0E858FE4F6F
:10044000E491E33031F140F4E130B1F0E230E1F039
:10045000C038D1057CF7E4CFE73029F1E83059F115
:10046000E430B1F780918000806280938000D09367
:100470008B00C0938A0004C084B5806884BDC7BD6A
:10048000DF91CF911F91089584B5806284BDC8BD6E
:10049000F7CF80918000806880938000D09389009E
:1004A000C0938800EDCF8091B00080688093B00049
:1004B000C093B300E5CF8091B00080628093B0001C
:1004C000C093B400DDCF8E50806480937C00809117
:1004D0007A00806480937A0080917A0086FDFCCF58
:1004E00080917800909179000895AF92BF92CF9259
:1004F000DF92EF92FF920F931F93CF93DF936C01E4
:100500007B018B01040F151FEB015E01AE18BF08C4
:10051000C017D10759F06991D601ED91FC91019076
:10052000F081E02DC6010995892B79F7C501DF918E
:10053000CF911F910F91FF90EF90DF90CF90BF90E0
:10054000AF900895FC01538D448D252F30E0842F0A
:1005500090E0821B930B541710F0CF9608950197EB
:100560000895FC01918D828D981761F0A28DAE0FD8
:10057000BF2FB11D5D968C91928D9F5F9F73928F5F
:1005800090E008958FEF9FEF0895FC01918D828D8B
:10059000981731F0828DE80FF11D858D90E0089558
:1005A0008FEF9FEF0895FC01918D228D892F90E0B0
:1005B000805C9F4F821B91098F739927089580E279
:1005C00091E00E94D30221E0892B09F420E0822FE0
:1005D000089580E090E0892B29F00E94DF028111CC
:1005E0000C9400000895FC01A48DA80FB92FB11D33
:1005F000A35ABF4F2C91848D90E001968F73992759
:10060000848FA689B7892C93A089B1898C91837036
:1006100080648C93938D848D981306C00288F3892F
:10062000E02D80818F7D80830895EF92FF920F935C
:100630001F93CF93DF93EC0181E0888F9B8D8C8D8E
:1006400098131AC0E889F989808185FF15C09FB782
:10065000F894EE89FF896083E889F9898081837045
:10066000806480839FBF81E090E0DF91CF911F91F4
:100670000F91FF90EF900895F62E0B8D10E00F5F15
:100680001F4F0F731127E02E8C8D8E110CC00FB6EB
:1006900007FCFACFE889F989808185FFF5CFCE0183
:1006A0000E94F302F1CFEB8DEC0FFD2FF11DE35A09
:1006B000FF4FF0829FB7F8940B8FEA89FB89808106
:1006C0008062CFCF682F80E291E00C9415030F93E6
:1006D0001F93CF93DF938C01D0E0C0E0F801EC0FC3
:1006E000FD1F6491662341F080E291E00E941503B2
:1006F000892B11F02196F2CFCE01DF91CF911F917E
:100700000F910895CF93DF93EC01888D8823B9F082
:10071000AA89BB89E889F9898C9185FD03C080810C
:1007200086FD0DC00FB607FCF7CF8C9185FFF2CF89
:10073000808185FFEDCFCE010E94F302E9CFDF91EA
:10074000CF910895FC0101900020E9F73197AF01A6
:10075000481B590BBC0180E291E00C9475028F920A
:100760009F92AF92BF920F931F93CF93DF93CDB71A
:10077000DEB7A1970FB6F894DEBF0FBECDBF19A2AA
:10078000423008F44AE08E010F5D1F4F842E912CF9
:10079000B12CA12CA50194010E94880BE62FB90170
:1007A000CA01EA30F4F4E05DD801EE938D01232B09
:1007B000242B252B79F790E080E0109719F0CD01DC
:1007C0000E94A203A1960FB6F894DEBF0FBECDBF64
:1007D000DF91CF911F910F91BF90AF909F908F901D
:1007E0000895E95CE1CFAC019B01809113029091E7
:1007F00014024817590784F461E070E080E090E04B
:1008000004C0660F771F881F991F4A95D2F762238D
:10081000732381E0672B09F480E008950F931F9301
:10082000CF93DF938C0104501109C1E1D2E01D8305
:100830000C83B80183E090E00E94F3038987B8013C
:1008400082E090E00E94F3038887B80181E090E0A5
:100850000E94F3038F83B80190E080E00E94F303CD
:100860008E83DF91CF911F910F910895CF93DF93E6
:100870000E946703EC0182E191E00E94A2038C0FC9
:100880009D1FDF91CF910895CF9384E790E00E9460
:100890006703C091160180E3CA3008F087E58C0F2A
:1008A0000E94620388E690E00E94670380E3C3FD34
:1008B00081E30E9462038FE20E94620380E3C2FD33
:1008C00081E30E9462038FE20E94620380E3C1FD24
:1008D00081E30E9462038FE20E94620380E3C0FD15
:1008E00081E30E94620382E191E0CF910C94A20324
:1008F000CF92DF92EF92FF92CF93DF936C01990F2B
:10090000EE08FF08F7FE17C08DE20E946203EC01BB
:1009100066277727CB016C197D098E099F094AE06C
:100920000E94AF038C0F9D1FDF91CF91FF90EF903E
:10093000DF90CF9008954AE0C701B601DF91CF91D3
:10094000FF90EF90DF90CF900C94AF031F920F9227
:100950000FB60F9211242F933F938F939F93AF93D2
:10096000BF9380911C0190911D01A0911E01B09137
:100970001F0130911B0123E0230F2D3758F50196FD
:10098000A11DB11D20931B0180931C0190931D019B
:10099000A0931E01B0931F0180911701909118013F
:1009A000A0911901B0911A010196A11DB11D80936A
:1009B000170190931801A0931901B0931A01BF91E8
:1009C000AF919F918F913F912F910F900FBE0F90FC
:1009D0001F90189526E8230F0296A11DB11DD2CFB6
:1009E0001F920F920FB60F9211242F933F934F93A4
:1009F0005F936F937F938F939F93AF93BF93EF9387
:100A0000FF9380E291E00E94F302FF91EF91BF918A
:100A1000AF919F918F917F916F915F914F913F9196
:100A20002F910F900FBE0F901F9018951F920F924D
:100A30000FB60F9211242F938F939F93EF93FF93F1
:100A4000E0913001F09131018081E0913601F09127
:100A5000370182FD1BC09081809139018F5F8F73B8
:100A600020913A01821741F0E0913901F0E0E05E17
:100A7000FE4F958F80933901FF91EF919F918F9158
:100A80002F910F900FBE0F901F9018958081F4CF7B
:100A9000E0E2F1E01382128288EE93E0A0E0B0E0A1
:100AA00084839583A683B78384E091E091838083D8
:100AB00085EC90E09587848784EC90E09787868723
:100AC00080EC90E0918B808B81EC90E0938B828B1B
:100AD00082EC90E0958B848B86EC90E0978B868BF4
:100AE000118E128E138E148EE1E1F2E080E190E01F
:100AF0009383828311821082158214821682178258
:100B00001086118685E0828786E0838787E0848768
:100B100088E0858789E086878AE08787118A108A3E
:100B2000138A128AE8EFF1E082E090E091838083FB
:100B300083E090E09383828381E08483858382E3F2
:100B400090E0A0E0B0E086839783A087B18781E042
:100B500090E0938782879587848716861786108A08
:100B6000118A128A138A148A158A168A178A108E95
:100B7000EFEEF1E01082118212821382148215824C
:100B8000168217821086EDEDF1E01082118212823A
:100B9000138214821582168217821086118612869D
:100BA00013861486158616861786118A108AEDEC30
:100BB000F1E0108211821282138240E050E060E87E
:100BC0007FEB448355836683778380E090ECAFE7C7
:100BD000B4E480879187A287B38780E090E0A0E8A3
:100BE000BFE384879587A687B787EDEBF1E0408365
:100BF00051836283738340E050E06FE773EC44837A
:100C000055836683778380879187A287B38780E047
:100C100090E0AFE7B3E484879587A687B787089508
:100C2000CF93DF93CDB7DEB72C970FB6F894DEBF26
:100C30000FBECDBF789484B5826084BD84B58160D9
:100C400084BD85B5826085BD85B5816085BD809197
:100C50006E00816080936E0010928100809181000F
:100C60008260809381008091810081608093810007
:100C7000809180008160809380008091B1008460C9
:100C80008093B1008091B00081608093B00080912A
:100C90007A00846080937A0080917A0082608093E9
:100CA0007A0080917A00816080937A0080917A0046
:100CB000806880937A001092C100E0913001F09139
:100CC000310182E08083E0912C01F0912D011082AE
:100CD000E0912E01F0912F018FEC8083109238016A
:100CE000E0913401F091350186E08083E09132019A
:100CF000F0913301808180618083E0913201F09135
:100D00003301808188608083E0913201F09133016A
:100D1000808180688083E0913201F091330180818D
:100D20008F7D80831092FD0110920E0210920F02AF
:100D30000E9471010E94BD0161E080911B020E942E
:100D4000810161E080911C020E94810161E080913B
:100D50001D020E94810161E080911E020E948101BA
:100D600061E080911F020E94810161E08091200278
:100D70000E94810170E060E080911B020E940602E7
:100D800070E060E0809120020E94060284E090E022
:100D90000E940E041092F7011092F3011092F401D8
:100DA0001092F5011092F60188EE90E00E94360450
:100DB0008DEA90E00E9436048AE790E00E943604B3
:100DC0000E94440482E0282E312C11E08091100210
:100DD000811102C00E94BD018091F8010E941A0198
:100DE0002FB7F89440911C0150911D0160911E0194
:100DF00070911F012FBF20910202309103028217D0
:100E0000930761F040930602509307026093080233
:100E1000709309029093030280930202C09006022D
:100E2000D0900702E0900802F09009024A015B01AD
:100E30008C189D08AE08BF08C090FE01D090FF013D
:100E4000E0900002F09001028C149D04AE04BF04F7
:100E500038F120910402309105028217930701F1C5
:100E6000909305028093040240930A0250930B0270
:100E700060930C0270930D023091FD012091FC01F2
:100E800021272817190669F580910E028127311153
:100E900001C081E080930E0210930F020E94710145
:100EA00080910E02811135C080E291E00E94D30250
:100EB0001816190674F580E291E00E94B10290EDD7
:100EC000980F9A3098F4082E000C990BC09797FD54
:100ED000EBCF8093160104960E940E040E944404F6
:100EE000E3CF3111DDCF10920E02D8CF9FE9980FDA
:100EF000963030F4082E000C990B87559109E7CFF6
:100F00009FEB980F963080F6082E000C990BC79730
:100F1000DECF80910E02811119C070E060E08091F7
:100F20001B020E94060270E060E0809120020E9495
:100F3000060280E090E0892B09F448CF0E94DF028E
:100F4000882309F442CF0E9400003FCF2FB7F894C6
:100F500080911C0190911D01A0911E01B0911F0173
:100F60002FBF2091F701222309F462C14091EF01C4
:100F70005091F0016091F1017091F2016C017D01DD
:100F8000C41AD50AE60AF70AB701A6014436510584
:100F90006105710570F24093F3015093F401609381
:100FA000F5017093F6018093EF019093F001A09307
:100FB000F101B093F2018FE00E9463029A8389836A
:100FC000C090D101D090D201E090D301F090D40133
:100FD0008090CD019090CE01A090CF01B090D00133
:100FE000A70196016091D9017091DA018091DB012E
:100FF0009091DC010E94B00B2B013C0129813A81C8
:10100000B901330F880B990B0E94CC0CA5019401F8
:101010000E94B00B9B01AC01C301B2010E94810D83
:101020002B013C01A50194016091D5017091D6017D
:101030008091D7019091D8010E94B00B9B01AC0127
:10104000C301B2010E94220CA70196010E94B10BBC
:101050004B015C018EE00E9463029E838D83C090F1
:10106000D101D090D201E090D301F090D4018091D1
:10107000CD019091CE01A091CF01B091D001898393
:101080009A83AB83BC83A70196016091D9017091CB
:10109000DA018091DB019091DC010E94B00B2B0101
:1010A0003C01AD81BE81BD01BB0F880B990B0E9435
:1010B000CC0C29813A814B815C810E94B00B9B0151
:1010C000AC01C301B2010E94810D2B013C012981B9
:1010D0003A814B815C816091D5017091D6018091FC
:1010E000D7019091D8010E94B00B9B01AC01C301C4
:1010F000B2010E94220CA70196010E94B10B6B0164
:101100007C0120E030E0A901C501B4010E941D0C62
:1011100087FF99C0C501B40190582DEC3CEC4CE41C
:101120005DE30E941D0C87FF03C0812C912C5401AC
:1011300020E030E0A901C701B6010E941D0C87FF25
:1011400085C0C701B60190582FE832EC45E75DE352
:101150000E941D0C87FF03C0C12CD12C7601809208
:10116000DD019092DE01A092DF01B092E001C09219
:10117000E101D092E201E092E301F092E40120E08B
:1011800030E0A901C501B4010E941D0C87FF61C0B8
:10119000D501C401B05889839A83AB83BC8320E016
:1011A00030E0A901C701B6010E941D0C87FF56C09F
:1011B000D701C601B0588D839E83AF83B8872D8138
:1011C0003E814F81588569817A818B819C810E9403
:1011D000B00B2B013C0120E030E0A9010E941D0C66
:1011E00087FF04C077FA709477F870942FE632E1A5
:1011F00043E85AE369817A818B819C810E941D0CAE
:1012000087FF31C02FE632E143E85AE36D817E81EA
:101210008F8198850E941D0C87FF25C01092EE01DA
:101220001092ED01C12CD12C76012601370147C067
:101230008093EF019093F001A093F101B093F2013C
:101240001093F70176CEC501B40167CFC701B6018F
:101250007BCF89829A82AB82BC82A1CFCD82DE8293
:10126000EF82F886ACCF2D813E814F815885698110
:101270007A818B819C810E947C0D87FD9EC120E03C
:1012800030E0A901C501B4010E947C0D20E030E0EE
:10129000A90187FD40C1C701B6010E947C0D87FDF1
:1012A00021C273016201F7FAF094F7F8F094A1E01B
:1012B000B0E0B093EE01A093ED012401350140921E
:1012C000E5015092E6016092E7017092E801C09258
:1012D000E901D092EA01E092EB01F092EC018091F9
:1012E000C1019091C201A091C301B091C401898351
:1012F0009A83AB83BC839C01AD016091C90170915D
:10130000CA018091CB019091CC010E94B00B6D83FA
:101310007E838F8398878090BD019090BE01A090BE
:10132000BF01B090C001A50194016091C501709109
:10133000C6018091C7019091C8010E94B00B6987D6
:101340007A878B879C87A5019401C301B2010E9413
:10135000B00B2D813E814F8158850E94810D2985DA
:101360003A854B855C850E94220C29813A814B810C
:101370005C810E94B10B0E94940C2B01A501940189
:10138000C701B6010E94B00B2D813E814F81588567
:101390000E94810D29853A854B855C850E94220C2F
:1013A00029813A814B815C810E94B10B0E94940C8F
:1013B0006B01909120029983A0911B02AD838091D3
:1013C0001A02811102C09D83A9838091190288238A
:1013D00009F467C15092220240922102D092240265
:1013E000C09223022091210230912202522F432FDA
:1013F0002130BFEF3B0714F451E04FEF852F942FBE
:101400008F3F910519F014F08FEF90E09093220236
:1014100080932102809123029091240281304FEF2A
:10142000940714F481E09FEF8F3F910519F014F0B9
:101430008FEF90E090932402809323028091180212
:1014400037FD38C1882309F438C160E080911C025F
:101450000E94430161E080911D020E94430120919E
:101460001702809123029091240297FD2FC122231D
:1014700009F42FC160E080911E020E94430161E0E7
:1014800080911F020E94430160912102709122020B
:1014900077FF03C07195619571098D810E940602E5
:1014A000609123027091240277FF03C071956195CA
:1014B000710989810E9406028AE291E00E94670315
:1014C0008091ED019091EE010E9478048FE191E00E
:1014D0000E946703C2010E9478048FE20E946203A7
:1014E0000D2C000CEE08FF084AE0C701B601F7FE1C
:1014F0000BC08DE20E94620366277727CB016C192F
:101500007D098E099F094AE00E94AF0382E191E0C4
:101510000E94A2030ECDC501B4010E941D0C181635
:1015200064F120E030E0A901C701B6010E947C0D02
:1015300087FD11C077FA709477F870947501640193
:10154000F7FAF094F7F8F09424E030E03093EE01ED
:101550002093ED01B4CE20E030E0A901C701B6012F
:101560000E941D0C18164CF085E090E09093EE015F
:101570008093ED0173016201A0CE20E030E0A9016B
:10158000C501B4010E947C0D87FD4CCE20E030E007
:10159000A901C701B6010E941D0C18160CF442CE19
:1015A00075016401F7FAF094F7F8F094A8E0B0E060
:1015B000B093EE01A093ED0182CE2D813E814F814B
:1015C000588569817A818B819C810E941D0C87FFDF
:1015D00029CE20E030E0A901C501B4010E947C0DB4
:1015E00020E030E0A90187FD15C0C701B6010E94C7
:1015F0007C0D87FD82C03092EE012092ED01342DEA
:10160000252D962D872D26013701C32ED22EE92EAA
:10161000F82E55CEC501B4010E941D0C18161CF100
:1016200020E030E0A901C701B6010E947C0D87FDD2
:1016300003C023E030E08ACF20E030E0A901C701F9
:10164000B6010E941D0C181674F0D301C201B058E7
:1016500026E030E03093EE012093ED0126013701C2
:101660006C017D012CCE20E030E0A901C501B40160
:101670000E947C0D87FDD6CD20E030E0A901C70196
:10168000B6010E941D0C18160CF4CCCD77FA70949C
:1016900077F8709487E090E09093EE018093ED01ED
:1016A0000ECED0922202C092210250922402409289
:1016B000230298CE882309F4C8CE60E080911D02F1
:1016C0000E94430161E080911C02C7CE222309F4ED
:1016D000D1CE60E080911F020E94430161E08091C1
:1016E0001E02D0CE20E030E0A901C501B4010E9465
:1016F0001D0C18160CF44ACF14CF20E030E0A901DD
:10170000C501B4010E941D0C18160CF4B5CF88CF8A
:10171000A1E21A2EAA1BBB1BFD010DC0AA1FBB1FF5
:10172000EE1FFF1FA217B307E407F50720F0A21B67
:10173000B30BE40BF50B661F771F881F991F1A94D4
:1017400069F760957095809590959B01AC01BD01FE
:10175000CF010895EE0FFF1F0590F491E02D09943D
:101760005058BB27AA270E94C80B0C94420D0E9418
:10177000340D38F00E943B0D20F039F49F3F19F4EE
:1017800026F40C94310D0EF4E095E7FB0C942B0D30
:10179000E92F0E94530D58F3BA17620773078407A5
:1017A000950720F079F4A6F50C94750D0EF4E095EC
:1017B0000B2EBA2FA02D0B01B90190010C01CA010B
:1017C000A0011124FF27591B99F0593F50F4503EB6
:1017D00068F11A16F040A22F232F342F4427585FA8
:1017E000F3CF469537952795A795F0405395C9F7C0
:1017F0007EF41F16BA0B620B730B840BBAF0915078
:10180000A1F0FF0FBB1F661F771F881FC2F70EC016
:10181000BA0F621F731F841F48F4879577956795E9
:10182000B795F7959E3F08F0B0CF9395880F08F0D5
:101830009927EE0F9795879508950E94070D08F454
:1018400081E008950E94360C0C94420D0E943B0DDD
:1018500058F00E94340D40F029F45F3F29F00C94B9
:101860002B0D51110C94760D0C94310D0E94530DDB
:1018700068F39923B1F3552391F3951B550BBB27BF
:10188000AA2762177307840738F09F5F5F4F220F04
:10189000331F441FAA1FA9F335D00E2E3AF0E0E8FB
:1018A00032D091505040E695001CCAF72BD0FE2F45
:1018B00029D0660F771F881FBB1F261737074807D9
:1018C000AB07B0E809F0BB0B802DBF01FF27935891
:1018D0005F4F3AF09E3F510578F00C942B0D0C941D
:1018E000760D5F3FE4F3983ED4F386957795679540
:1018F000B795F7959F5FC9F7880F911D96958795C6
:1019000097F90895E1E0660F771F881FBB1F6217E4
:1019100073078407BA0720F0621B730B840BBA0BA2
:10192000EE1F88F7E09508950E949B0C6894B11112
:101930000C94760D08950E945B0D88F09F5798F0E7
:10194000B92F9927B751B0F0E1F0660F771F881FC4
:10195000991F1AF0BA95C9F714C0B13091F00E94DE
:10196000750DB1E008950C94750D672F782F8827B9
:10197000B85F39F0B93FCCF3869577956795B39505
:10198000D9F73EF490958095709561957F4F8F4F74
:101990009F4F0895E89409C097FB3EF49095809579
:1019A000709561957F4F8F4F9F4F9923A9F0F92F25
:1019B00096E9BB279395F695879577956795B795A3
:1019C000F111F8CFFAF4BB0F11F460FF1BC06F5F89
:1019D0007F4F8F4F9F4F16C0882311F096E911C09B
:1019E000772321F09EE8872F762F05C0662371F0BC
:1019F00096E8862F70E060E02AF09A95660F771FD0
:101A0000881FDAF7880F9695879597F90895990FAB
:101A10000008550FAA0BE0E8FEEF16161706E807B8
:101A2000F907C0F012161306E407F50798F0621BD9
:101A3000730B840B950B39F40A2661F0232B242BAE
:101A4000252B21F408950A2609F4A140A6958FEFCD
:101A5000811D811D089597F99F6780E870E060E01F
:101A600008959FEF80EC089500240A941616170637
:101A700018060906089500240A941216130614067F
:101A800005060895092E0394000C11F4882352F0E2
:101A9000BB0F40F4BF2B11F460FF04C06F5F7F4F9A
:101AA0008F4F9F4F089557FD9058440F551F59F081
:101AB0005F3F71F04795880F97FB991F61F09F3F3B
:101AC00079F087950895121613061406551FF2CF64
:101AD0004695F1DF08C0161617061806991FF1CFB4
:101AE00086957105610508940895E894BB276627DB
:101AF0007727CB0197F908950E94070D08F48FEF1F
:101B000008950E94940D0C94420D0E94340D38F0FB
:101B10000E943B0D20F0952311F00C942B0D0C949A
:101B2000310D11240C94760D0E94530D70F3959F86
:101B3000C1F3950F50E0551F629FF001729FBB27C4
:101B4000F00DB11D639FAA27F00DB11DAA1F649F60
:101B50006627B00DA11D661F829F2227B00DA11D13
:101B6000621F739FB00DA11D621F839FA00D611D99
:101B7000221F749F3327A00D611D231F849F600DBA
:101B8000211D822F762F6A2F11249F5750409AF0E3
:101B9000F1F088234AF0EE0FFF1FBB1F661F771F6F
:101BA000881F91505040A9F79E3F510580F00C943A
:101BB0002B0D0C94760D5F3FE4F3983ED4F386959D
:101BC00077956795B795F795E7959F5FC1F7FE2BDA
:101BD000880F911D9695879597F90895F894FFCFF2
:101BE0000000000015037502A2028203D302B102B5
:061BF000C5020D0A000011
:00000001FF
